:020000040001F9
:1090000030330020C5930100EF930100F19301007C
:10901000F3930100F5930100F793010000000000B5
:10902000000000000000000000000000F9930100B3
:10903000FB93010000000000FD930100FF9301007D
:10904000E99C010001940100C5A101000194010007
:1090500001940100000000008D9A0100559D01005F
:1090600001940100019401000194010001940100A8
:109070000194010001940100019401000194010098
:10908000019401003D9D0100019401000194010043
:109090000194010001940100219F0100019401004D
:1090A0000194010001940100000000000000000094
:1090B0000194010001940100000000000000000084
:1090C00000000000000000000000000000000000A0
:1090D0000000000000000000000000000000000090
:1090E0000000000000000000000000000000000080
:1090F0000000000000000000000000000000000070
:10910000000000000000000000000000000000005F
:10911000000000000000000000000000000000004F
:10912000000000000000000000000000000000003F
:10913000000000000000000000000000000000002F
:10914000000000000000000000000000000000001F
:10915000000000000000000000000000000000000F
:1091600000000000000000000000000000000000FF
:1091700000000000000000000000000000000000EF
:1091800000000000000000000000000000000000DF
:1091900000000000000000000000000000000000CF
:1091A00000000000000000000000000000000000BF
:1091B00000000000000000000000000000000000AF
:1091C000000000000000000000000000000000009F
:1091D000000000000000000000000000000000008F
:1091E000000000000000000000000000000000007F
:1091F000000000000000000000000000000000006F
:10920000DFF810D000F004FC00480047B1CF0100A7
:10921000AFF300803033002030B450E8012F93B218
:10922000C48923448489A34228BF1B1B0489A34209
:1092300002BFBFF32F8F002007E0C3EA020340E81C
:109240000134002CE9D14FF001000A6030BC7047B6
:1092500050E8012FC2EA024240E801210029F7D17B
:10926000704730B450E8022F1FFAA2F3C488A3421B
:1092700002BFBFF32F8F00200DE0C48923448489EF
:10928000A34228BF1B1BC2EA034340E80234002C60
:10929000E8D14FF001000A6030BC704750E8022F5F
:1092A000C2EA224240E802210029F7D17047034672
:1092B00053E8022FD988B2EB324F4FF0000017BFAE
:1092C00092B241EA014142EA014104E05A68B2EB3C
:1092D000324F08BF012043E80212002AE8D170474C
:1092E00030B4044654E8000F0D4644E80053002B08
:1092F000F8D1156030BC704730B4044654E8000F14
:1093000040EA010544E80053002BF7D1156030BC5A
:10931000704730B4044654E8000F00EA010544E801
:109320000053002BF7D1156030BC704730B40446B1
:1093300054E8000F80EA010544E80053002BF7D100
:10934000156030BC704730B4044654E8000F00EBA1
:10935000010544E80053002BF7D1156030BC70477D
:1093600030B4044654E8000FA0EB010544E8005374
:10937000002BF7D1156030BC704770B404464FF035
:10938000000054E8006F0D68AE4207BF44E80023B8
:10939000012044E800630E60002B1CBF0020F0E7B2
:1093A00070BC704730B4044654E8000F88422CBFAC
:1093B000451A054644E80053002BF5D1156030BC32
:1093C000704700000F4800680F4909680A280AD151
:1093D000002908D10D4802686FF070031A404FF061
:1093E00040031A4302600A4880470A480047FEE7E4
:1093F000FEE7FEE7FEE7FEE7FEE7FEE7FEE7FEE745
:10940000FEE700003001001034010010E40E0040BF
:10941000399F0100019201002DE9F05F054600200F
:1094200092469B4688460646814640241BE02846D5
:1094300041464746224600F035FA53465A46C01A7E
:10944000914110D311461846224600F016F82D1A05
:1094500067EB01084F4622460120002100F00DF87D
:1094600017EB00094E41201EA4F10104DFDC484641
:1094700031462A464346BDE8F09F202A04DB203AC5
:1094800000FA02F1002070479140C2F1200320FA57
:1094900003F319439040704740EA01039B0703D050
:1094A00009E008C9121F08C0042AFAD203E011F823
:1094B000013B00F8013B521EF9D27047D2B201E0E5
:1094C00000F8012B491EFBD270470022F6E710B5C9
:1094D00013460A4604461946FFF7F0FF204610BD22
:1094E0002DE9FE4F804681EA0300C00F0C46009034
:1094F00021F0004123F00045B8EB0200A94105D25C
:109500004046214690461C460B46024623F000404A
:10951000104347D0270DC7F30A00C3F30A51029046
:10952000401A019040286BDAC3F3130040F4801B0B
:109530000098924620B10023D2EB030A63EB0B0B99
:1095400001985946C0F140025046FFF796FF064683
:109550000D4650465946019A00F0B4F910EB080048
:109560006141002487EA115284EAE7731A4340D02C
:10957000009A62B3019A012A4FEA075215DC001BD8
:1095800061EB02014FF0004202EA0752CDE90042CE
:10959000001C41F5801132462B4600F0EBF903B078
:1095A000BDE8F08F40462146F9E7001B61EB020160
:1095B000001C41F5801300185B412018A2F500172C
:1095C00047EB030140EAD570B6196D4111E06D0813
:1095D0004FEA360645EAC0754FEA0752001B61EBB9
:1095E0000201001C41F5801149084FEA30000019C2
:1095F000514132462B4603B0BDE8F04F00F0ABB905
:109600000098012240000023D0EB020263EBE073DC
:10961000009821464FEAE074B8EB000061EB0401CA
:10962000E9E783F000435BE781F0004158E72DE96B
:10963000FE4F81EA030404F0004421F0004100944D
:109640004FF0000B23F0004350EA01045ED052EAD1
:1096500003045BD0C3F30A54C1F30A552C44A4F2AB
:10966000F3340194A0FB0254C1F3130141F48011BF
:10967000C3F3130343F4801301FB024400FB034EC6
:10968000840A970A44EA815447EA8357A4FB07688F
:1096900002958D0A05FB07854FEA932C04FB0C54B9
:1096A0002705029D4FEA065847EA1637B5EB08052D
:1096B0006EEB070C870E920E47EA811742EA83127F
:1096C000A7FB0201B6EB0B0164EB00042B0D43EA90
:1096D0000C335E1844EB1C50DA465146E7FB02019E
:1096E000C5F313044FEA0B3343EA14534FEA043231
:1096F000019C43EA0603A4F10C040294009CCDE90A
:1097000000B400F037F903B0BDE8F08F0020014647
:10971000F9E72DE9F04D81EA030404F0004B21F054
:10972000004514464FF0000A23F0004150EA0502BC
:1097300020D054EA01021DD0C5F30A570246C5F3F2
:109740001303C1F31300C1F30A5640F4801543F428
:109750008013A7EB0608101BD64608F2FD3873EB02
:10976000050002D308F1010801E092185B41B8F14D
:10977000000F03DA00200146BDE8F08D00204FF411
:109780008011064684460EE0171B73EB050705D3D0
:10979000121B63EB050306434CEA010C49084FEA30
:1097A000300092185B4150EA0107EDD152EA030004
:1097B00012D082EA040083EA0501084305D0101B99
:1097C000AB4106D20122002306E000224FF0004305
:1097D00002E06FF0010253101AEB06004CEB085147
:1097E00010EB0A0041EB0B01BDE8F04D00F0B3B8FF
:1097F0000EB5C10F80EAE0700844CA07002140F2AC
:1098000033438DE80E000A460B4600F0B3F803B070
:1098100000BD20F00040C10DC0F3160040F4000070
:109820007F2901DA00207047962903DCC1F19601F7
:10983000C8407047963988407047C1F30A5210B546
:10984000C1F3130140F2FF3341F480119A4201DA6F
:10985000002010BD40F233439A42A2F2334203DCAF
:10986000524200F01FF810BD904010BD01F00043BF
:1098700030B421F0004150EA010206D00A0DA2F5F1
:109880006072C1F31301002A02DC30BC0020704773
:10989000440F44EAC104C100E01830BC00EBC250E0
:1098A00000F022B8202A04DB203A21FA02F000213D
:1098B000704721FA02F3D040C2F1200291400843E0
:1098C00019467047202A06DBCB17203A41FA02F0EE
:1098D00043EAE07306E041FA02F3D040C2F120020D
:1098E00091400843194670470029A8BF7047401CA3
:1098F000490008BF20F00100704710B4B0FA80FCA6
:1099000000FA0CF050EA010404BF10BC704749B1E2
:10991000CCF1200421FA04F411FA0CF118BF012152
:1099200021430843A3EB0C01CB1D4FEA00614FEA32
:10993000102042BF002010BC704700EBC350104401
:109940000029A4BF10BC7047401C490008BF20F08C
:10995000010010BC704710B5141E73F1000408DA42
:10996000401C41F1000192185B411A4301D120F0E3
:10997000010010BD2DE9F04D92469B4611B1B1FAA0
:1099800081F202E0B0FA80F220329046FFF775FDD6
:1099900004460F4640EA0A0041EA0B0153465A4684
:1099A000084313D0114653EA010019D0C8F1400210
:1099B0005046FFF777FF05460E4650465946424649
:1099C000FFF75BFD084305D0012004E0204639463F
:1099D000BDE8F08D0020054346EAE0762C4337438E
:1099E0000A986305E40AA0EB08000022FD0A44EA95
:1099F00047540A3002D500200146E9E70105101955
:109A00006941DDE9084500196941BDE8F04DA2E76B
:109A1000064C074D06E0E06840F0010394E80700BB
:109A200098471034AC42F6D3FFF7EEFB60F9010023
:109A300080F9010070B58C1810F8015B15F0070370
:109A400001D110F8013B2A1106D110F8012B03E0D7
:109A500010F8016B01F8016B5B1EF9D12B0705D4DF
:109A60000023521E0DD401F8013BFAE710F8013B28
:109A7000CB1A921C03E013F8015B01F8015B521E44
:109A8000F9D5A142D8D3002070BD00002DE9F04FD8
:109A900089B00027002008904FF4807007900126BD
:109AA000002412E0079803F017FE40B100BF7B4886
:109AB0000068304018B1079803F000FE3743760085
:109AC0000798001D80B20790641C082CEAD34FF45D
:109AD000BE7003F001FE50B14FF4BE7003F0EEFD16
:109AE00047F0004708AA0121002003F0CDFDF8B29D
:109AF00000B3012600241BE006EA0700B0B100BF56
:109B0000674850F82400C0F30420804600BF644832
:109B100050F82400C0F301408146204602F09CFA30
:109B2000054615B149464046A84700BF7600641C6B
:109B3000082CE1D307F0004000287DD000200690DB
:109B40000590002505E04FF0FF3004A941F82500FD
:109B50006D1C002DF7D000BF0020069000245FE0B0
:109B60005048005D0390039820F0C0094D4800570D
:109B7000401C002853D004A9484603F0E3FB00280A
:109B80004DD003984FEA901A484602F0ADFA80464D
:109B900002F062FA0290029810B9BAF1030F3DD1B7
:109BA000BAF1030F03D105A9484603F0D6FB00BF65
:109BB00000BF4FF0A041084600F5E06151F82910C0
:109BC000C1F3014800BF08A9484603F0BBFB834628
:109BD000BBF1000F02D0B8F1020F05D0BBF1000FAE
:109BE0001BD1B8F1030F18D1BAF1030F0FD1B8F19F
:109BF000020F01D1032000E00220019048460199A4
:109C000003F000FD0698401CC0B2069000BF029809
:109C100018B151464846029A904700BF00BF641CE5
:109C2000042C9DD3069888B34FF0010803AA0121A4
:109C3000002003F029FD00E02DE000250BE003A843
:109C400050F8250008A951F82510884202D04FF09D
:109C5000000802E06D1C002DF1D000BFB8F1000F2C
:109C600002D00020069010E000250CE003A850F878
:109C7000250008A941F8250005A850F8250004A9E9
:109C800041F825006D1C002DF0D000BF069800287B
:109C90007FF462AF00BF09B0BDE8F08F04630040FD
:109CA00010650040402A002000BF00BF00BFBFF386
:109CB0004F8F00BF00BF00BF0948006800F4E0609C
:109CC00008490843001D0649086000BF00BF00BFE7
:109CD000BFF34F8F00BF00BF00BF00BF00BFFDE755
:109CE0000CED00E00000FA0510B54FF4807003F0B1
:109CF000F5FB80B14FF4807003F0F9FB012003F015
:109D0000FFFB0D48407930B901200B4948710846E6
:109D10000168002088474FF4827003F0DFFB50B1E8
:109D20004FF4827003F0E3FB022003F0E9FB0248EA
:109D300001680120884710BDA423002010B5034A04
:109D40001068034A1168884710BD0000F8230020FE
:109D5000F4230020FEB54FF4827003F03FFD00288D
:109D600037D04FF4827003F043FD6C4890F82E001A
:109D700018B16A4890F82F0058B300208DF8000001
:109D800066484068019065480189ADF80810C068D0
:109D900018B900206149087412E06048008B5F49DF
:109DA00048830846C06848600846008B0881002048
:109DB000C860084690F82E0010B9002003F030FD6E
:109DC00056480168684688470020544981F82F00AA
:109DD00000BF524890F82E00002852D04FF48070F7
:109DE00003F0FCFC00284CD04FF4807003F000FD21
:109DF0004A48408B494991F82D10884216DD474862
:109E0000408B464991F82D10401A444948830A4630
:109E100012890B465B8BD21A0B465B6803EB420040
:109E20000A4692F82D1003F0C5FC23E03B48408B16
:109E30003A4991F82D1088420FD13848C06860B176
:109E40000120364981F82F00002048830A4692F805
:109E50002D10D06803F0AEFC0CE03048408B2F4949
:109E600091F82D10884205D101202C4981F82F004E
:109E7000002048834FF4827003F0BAFC042003F002
:109E8000CFFC4FF4887003F0A9FC70B14FF48870D8
:109E900003F0AEFC00202149087402208DF8000078
:109EA000084601686846884700BF4FF48A7003F08F
:109EB00095FC38B14FF48A7003F09AFC00201749E2
:109EC00008742AE01548456924E0B5FA85F64FF094
:109ED0000040F0408543B00000F58C74204603F04C
:109EE0007DFCB8B1204603F083FC01208DF8000012
:109EF000A4F58C70C0F3C7008DF80400A4F58C7035
:109F0000012121EA90018DF8051004480168684696
:109F1000884700BF002DD8D100BFFEBD4C2A0020CD
:109F200010B503F077FD10BD014802490860704785
:109F30000090D0031024002010B502F095FC28B149
:109F40008E480088C0F304208D49086002F0F4FCBC
:109F500010B18C488C49486702F02AFD30B187481F
:109F6000E0380068C0F342308849086002F05EFDC6
:109F700028B18748006820F080708549086002F0A9
:109F80006DFD48B10020834908604FF08041C1F861
:109F900010017E49091F086002F09EFD18B10320E0
:109FA0007A496431086002F0AFFD68B105207A4952
:109FB000086001207849783108600020764908312E
:109FC00008603F20091F086002F0B6FD002855D048
:109FD0006A48E0300068714908606848E430006809
:109FE000091D08606548E8300068091D086063487D
:109FF000EC300068091D08606048F0300068091DF9
:10A0000008605E48F4300068091D08605B48F8305D
:10A0100000686249203108605848FC300068091D1A
:10A0200008605F480068091D08605D48001D006801
:10A03000091D08605A4808300068091D0860584822
:10A040000C300068091D08605548103000685349FD
:10A0500040310860524814300068091D08605048BB
:10A0600018300068091D08604D481C300068091D43
:10A0700008604B4820300068091D086002F0BCFBF6
:10A0800010B1FB204749086002F0C4FB30B13B48E7
:10A09000CC38006800F04F004349086002F00EFC25
:10A0A00040B14248006800F0010018B16FF00100B3
:10A0B0003E49086002F058FC28B13D48006840F471
:10A0C00080603B49086002F05FFC28B136480068B8
:10A0D00040F00F00344908603648006800F0004046
:10A0E00028B93448001D006800F00040F0B301209A
:10A0F0003149086000BF314800680028FBD01520B6
:10A100002C49086000BF2D4800680028FBD01521AD
:10A110002848001D016000BF284800680028FBD0C7
:10A1200000202549086000BF244800680028FBD0B3
:10A1300000BF00BF00BF00BF00BFBFF34F8F00BF15
:10A1400000BF00BF1248F038006800F4E0601C490E
:10A150000843001D0E49F039086000BF00BF00BF72
:10A16000BFF34F8F00BF00BF00BF00E002E000BFA1
:10A1700000BFFDE7FFF7D8FE10BD0000240300106C
:10A18000403501400DF0ADBA00C007403C0500402D
:10A19000FCED00E00C0100401056004020C50040DE
:10A1A0002404001018F50040E40E004000040040B4
:10A1B0003C1700400012001004E5014000E401409B
:10A1C0000000FA0510B502490868804710BD00007C
:10A1D000AC23002002E008C8121F08C1002AFAD1EF
:10A1E00070477047002001E001C1121F002AFBD117
:10A1F000704700000146202908DA012088400A4AF9
:10A20000104008B1012070470020FCE7402909DA1E
:10A21000A1F12000012202FA00F008B10120F2E7CA
:10A220000020F0E70120EEE7FC06FFBD00BFEFF3E2
:10A230001081084672B670470246002104E0505C67
:10A2400008B101207047491C0629F8D30020F9E71E
:10A2500070B504460D4604F1EB00FFF7EDFF06462E
:10A26000012D06D0022D0DD0032D11D0042D19D1B2
:10A2700013E0A07928B194F8240010B90EB10120A0
:10A2800070BD00BFE07910B10EB10220F8E700BF49
:10A29000207A08B10320F3E700BF607A08B10420F8
:10A2A000EEE700BF0020EBE70146481C052290FBCB
:10A2B000F2F302FB1300C0B27047014691F824206C
:10A2C000012A01D11F2000E01F2070470121014A0F
:10A2D00011707047C8220020F0B5AFB00027AC2144
:10A2E00004A8FFF7F2F80020019002900390C72025
:10A2F000ADF804001D4903911B20ADF8080001A82A
:10A300000D9000208DF810008DF812008DF81300CC
:10A31000A02601218DF88C10269600212791144843
:10A320002D9004A9134800F0A0FB044600BF254669
:10A3300025B100BF284600F047F900BF00BF0D4817
:10A3400090F854100022012077DF044600BF254614
:10A3500025B100BF284600F037F900BF00BF01213A
:10A36000044800F07FFB2FB0F0BD0000D322002096
:10A37000BBE501003424002010B50446022001F0A2
:10A38000EBFA10BDF0B5ADB0074600263C211EA883
:10A39000FFF79BF83C210FA8FFF797F82C2104A8A2
:10A3A000FFF793F800200190029003904FF4207083
:10A3B00008901B2632490878C11700EB917189106B
:10A3C000A0EB810161B920202E4948702E48007809
:10A3D00088702D4800880012C8700020087108E0BD
:10A3E0004020284948708C2088701F20C8700A209F
:10A3F0000871234800782349487121480078401C9F
:10A400001F490870214991F8540074DFC720ADF846
:10A4100004001C490391ADF8086001A827900020B2
:10A420008DF87A008DF878008DF87B008DF83C006F
:10A4300001208DF814000020099004A9134800F0B1
:10A4400094FB00221EA9114800F0AAFA044600BF9E
:10A45000254625B100BF284600F0B6F800BF00BF72
:10A4600003210A4800F0A8FB044600BF254625B199
:10A4700000BF284600F0A8F800BF00BF2DB0F0BD17
:10A48000CE220020D3220020D0220020342400201D
:10A4900010B5002407E00749096811F834000121CC
:10A4A00003F0C4FB641C044800788442F3D300200A
:10A4B00010BD0000B8230020BC2300202DE9F84384
:10A4C00006460D4617460A2F02D20720BDE8F8833C
:10A4D00003F0DCFC38B903F083FC044600BF2046DF
:10A4E00000B1F3E700BF1848066018480570184827
:10A4F000076018480021016041608160C160164A10
:10A500001160516015E006EBC50814480068009022
:10A5100098F802008DF8010098F80000104A69468A
:10A5200003F0DAFB044600BF204600B1CEE700BFCF
:10A5300000BF281EA5F10101CDB2E4D1094A0021D6
:10A54000094800F07DF8C1E7B8230020BC230020B3
:10A55000C0230020A02A0020C823002070F801009A
:10A5600031CE0100E9C401006CF8010072B600BFF1
:10A570001348006800F0010000B100BE00BF00BF3A
:10A5800000BF00BF00BF00BFBFF34F8F00BF00BFC1
:10A5900000BF0B48E438006800F4E0600949084354
:10A5A000001D0749E439086000BF00BF00BFBFF3CA
:10A5B0004F8F00BF00BF00BF00BF00BFFDE700001E
:10A5C000F0ED00E00000FA053EB5044600200090E2
:10A5D0000190029002946A46002144F20100FFF7C4
:10A5E000C5FF3EBD10B50E48007800B910BD0C483F
:10A5F000007800F0010080B1002009490870094886
:10A60000007818B10120FFF7BDFE06E0064991F879
:10A61000540074DF00200549087000BFE6E7000021
:10A62000C8220020D222002034240020CE22002084
:10A6300010B5024801F0CEFF10BD0000D02300206D
:10A6400010B503460C460AB9072010BD19684A61C7
:10A65000012C01D1012000E0002008610020F4E776
:10A6600038B5134800680090082358221149124851
:10A67000006802F0D8FD04460CB1204638BD0F4AF0
:10A6800069460F4801F0ACFF04460CB12046F5E7DF
:10A6900001210B4802F00EF801230A4A1946084826
:10A6A00001F06AFF0120084908702046E6E7000033
:10A6B00084F80100B02A002074F80100FDEA0100CE
:10A6C000D0230020FFFF7F00DC2300202DE9F04194
:10A6D00006460D4617463446207F10B10020BDE8DF
:10A6E000F081A76102F080FB401941F10001C4E94B
:10A6F0000201206900B125612146002004F01CFE02
:10A70000EDE770B50446254600202877294601204C
:10A7100004F012FE70BD10B50446204604F0EAFABB
:10A7200010BD000070B5044625460E488068B0B1E3
:10A73000ADB9FFF77BFD06460A4800680A49086084
:10A74000084840684FF0E021C1F8040100200549A5
:10A7500088601EB900BF62B600BF00BF00BF00BF67
:10A7600070BD0000182B002000E100E0F8B50546A0
:10A770000C4617462088001DB84201D90C20F8BDB0
:10A78000684679DF064600BF304600B1F7E700BFF4
:10A790000320218868542088401C208019202188AB
:10A7A00068542088401C208020884119BDF8000092
:10A7B00004F021FE2188084420800020DFE72DE9F5
:10A7C000FC41054688461646002437880020308024
:10A7D00095F82D0058B13A463146404600F028FC25
:10A7E000044600BF204608B1BDE8FC8100BFA87840
:10A7F00050B13A4631464046FFF7B8FF044600BF25
:10A80000204600B1F0E700BFE87860B1E97848B2CF
:10A810003B463246414602F06AFA044600BF2046F3
:10A8200000B1E1E700BF686868B1696891F90000AC
:10A830003B463246414604F0BDFD044600BF20467B
:10A8400000B1D1E700BF288900280EDD434606226B
:10A85000022105F10800CDE9006704F006FE044678
:10A8600000BF204600B1BFE700BF288A00280EDDE8
:10A8700043460722032105F11000CDE9006704F0EB
:10A88000F4FD044600BF204600B1ADE700BF288BB1
:10A8900000280EDD43461522142105F11800CDE9EC
:10A8A000006704F0E2FD044600BF204600B19BE7CC
:10A8B00000BF286A58B13B4632464146286A01F03B
:10A8C0009BFD044600BF204600B18DE700BF686ACB
:10A8D00058B13B4632464146686A02F005FC0446E0
:10A8E00000BF204600B17FE700BF287858B13B4643
:10A8F00032464146284602F032FC044600BF20465C
:10A9000000B171E700BF95F82C0000280BDD3B4635
:10A9100032464146284604F099FA044600BF2046D4
:10A9200000B161E700BF20465EE7F8B504460E4679
:10A930001546002000902B466A463146204600F01E
:10A9400008F807460FB90020F8BDBDF80000204404
:10A95000FAE7F0B504460D4604B10AB90020F0BD8F
:10A96000002103E0605C401C084481B210888842EA
:10A9700003DC481C205C984201D0A942F2DBA942CA
:10A9800001DB0020EBE7881C86B2605C401E87B2CA
:10A99000F019A84201DD0020E1E716803846DEE725
:10A9A0002DE9FF4104460D46164600BF1CB90E2096
:10A9B00004B0BDE8F08100BF207808B90820F7E7AF
:10A9C00015B90EB90E20F3E7002000900190029017
:10A9D0000390DDB1D4F8E400016804F15500814230
:10A9E00000D001E004F1740000902046FFF765FC00
:10A9F000ADF8040001AA28460099FFF7E0FE0746DB
:10AA000000BF384600B1D3E700BF00BFDEB1D4F8C5
:10AA1000E400816804F19300814200D001E004F178
:10AA2000B20002902046FFF748FCADF80C0003AAE4
:10AA300030460299FFF7C3FE074600BF384600B113
:10AA4000B6E700BF00BF04F180009DE88E005430DF
:10AA50008EC01038C4F8E40000228038D4F8E41026
:10AA600072DFA5E780F83010704770B504460D46D8
:10AA700005B10CB90E2070BD05F1780001F05DFC48
:10AA800008B90720F7E70020A0702C2205F1780113
:10AA9000201DFEF701FD002084F83000D5F8A40049
:10AAA0006063D5F8A800A0634FF6FF70A4F8E80033
:10AAB00004F1D400C4F8E4000021F020C4F8EA1046
:10AAC000A4F8EE100155207810B9FF2084F8540046
:10AAD00004F15500C4F8D4002046FFF7EEFBD8215E
:10AAE000085304F1D80204F155012846FFF767FE28
:10AAF000064600BF304600B1BDE700BF04F1930039
:10AB0000DC2108512046FFF7D8FBA4F8E000DC2048
:10AB1000015904F1E00205F13C00FFF750FE064642
:10AB200000BF304600B1A6E700BF0121512001550A
:10AB3000208B81B248200153012084F83C00002181
:10AB40002164502001556169616404F13C020021D7
:10AB500004F1540072DF064600BF304600B18AE7B8
:10AB600000BF01202070304685E770B504460D46D1
:10AB70002C222946201DFEF78FFC70BD70B50446BF
:10AB80000D462E462088102804D0112807D02628EC
:10AB90000FD109E02146304603F082FD0AE021464C
:10ABA000304603F0C2FD05E02146304603F091FE39
:10ABB00000E000BF00BF70BD70B504460E462078AF
:10ABC00008B9082070BDA6700021F020C4F8EA1072
:10ABD000A4F8EE100155A07910B1A078012809D091
:10ABE000E07910B1A078012804D0E07970B1A078A4
:10ABF00002280BD1606B30B1012084F8F1000820ED
:10AC0000616B884702E0002084F8F100314620465D
:10AC1000FFF71EFBA070606BA0B1A078032802D0E4
:10AC2000A07804280ED1607960B194F8F20048B998
:10AC3000002084F8F400012084F8F3000720616B01
:10AC4000884702E0002084F8F300182104F13C005A
:10AC5000FEF73BFC012084F83C0004F12C0003F0DB
:10AC6000A7FE20B194F82C105120015502E00121DB
:10AC70005120015594F8240060B104F1280003F03C
:10AC800097FE20B194F828105220015502E00121CE
:10AC900052200155002150200155A07805282AD2C4
:10ACA000DFE800F025030A111E0004F13C012046F4
:10ACB00004F08CF905461FE004F13C01204604F045
:10ACC00073F9054618E004F13C01204604F090F9C0
:10ACD0000546052084F83C00C02184F84F100BE0A5
:10ACE00004F13C01204604F0AAF9054604E00020E6
:10ACF00084F8310000E000BF00BFA07898B104F1F3
:10AD00003C0204F15400D4F8E41072DF05460DB1A2
:10AD1000284657E794F8301094F8540073DF05463E
:10AD20000DB128464EE7606B18B194F83100616BA5
:10AD30008847002046E7000010B58CB001208DF850
:10AD4000220041F60A00ADF8200009AA08A9012056
:10AD5000A8DF044600BF204608B10CB010BD00BFFC
:10AD600020216846FEF7B1FB42F62320ADF8000033
:10AD700001208DF802000620ADF80400ADF80600B1
:10AD800001208DF80C006C4802909DF80D0020F019
:10AD90000200801C8DF80D0001208DF81100BDF817
:10ADA00024000DF12602694601F0A4F90446202191
:10ADB0006846FEF78AFB42F62420ADF80000012029
:10ADC0008DF802000A20ADF80400ADF8060001205D
:10ADD0008DF80C00594802909DF80D0020F00200FB
:10ADE000801C8DF80D0001208DF81100BDF82400A5
:10ADF0000DF12602694601F07DF9044620216846DE
:10AE0000FEF763FB42F62520ADF8000001208DF827
:10AE100002000D20ADF80400ADF8060001208DF809
:10AE20000C00474802909DF80D0020F00200801CA5
:10AE30008DF80D0001208DF81100BDF824000DF1F2
:10AE40002602694601F056F9044620216846FEF7BD
:10AE50003CFB42F62620ADF8000001208DF80200F0
:10AE60000F20ADF80400ADF8060001208DF80C00AD
:10AE7000344802909DF80D0020F00200801C8DF8EF
:10AE80000D0001208DF81100BDF824000DF12602FF
:10AE9000694601F02FF9044620216846FEF715FBAC
:10AEA00042F62720ADF8000001208DF802000F20A7
:10AEB000ADF80400ADF8060001208DF80C00224822
:10AEC00002909DF80D0020F00200801C8DF80D000E
:10AED00001208DF81100BDF824000DF1260269460D
:10AEE00001F008F9044620216846FEF7EEFA42F622
:10AEF0002B20ADF8000001208DF802000A20ADF8EB
:10AF00000400ADF8060001208DF80C000F480290F7
:10AF10009DF80D0020F00200801C8DF80D0001202E
:10AF20008DF81100BDF824000DF12602694601F0EC
:10AF3000E1F80446204610E72A23002030230020B1
:10AF40003A230020472300205623002065230020B9
:10AF50002DE9F04105460C4616460127062D54D230
:10AF6000DFE805F0030D1B293745062C05D12246E5
:10AF700031462948FEF790FA00E0002747E00A2C06
:10AF800009D82648002101604160018122463146EE
:10AF9000FEF782FA00E0002739E00D2C09D80D21D8
:10AFA0001F48FEF792FA224631461D48FEF774FA12
:10AFB00000E000272BE00F2C09DC0F211948FEF7D9
:10AFC00084FA224631461748FEF766FA00E0002769
:10AFD0001DE00F2C09DC0F211348FEF776FA2246FC
:10AFE00031461148FEF758FA00E000270FE00A2C1E
:10AFF00009D80E4800210160416001812246314696
:10B00000FEF74AFA00E0002701E0002700BF00BF7A
:10B010003846BDE8F08100002A23002030230020BC
:10B020003A230020472300205623002065230020D8
:10B030002DE9FC4105460C46174620880930B842E8
:10B0400002D90C20BDE8FC8168466DDF064600BFD2
:10B05000304600B1F6E700BF0820218868542088F8
:10B06000401C20801B20218868542088401C2080A0
:10B0700020882844DDF801100160BDF805108180AA
:10B080002088801D20809DF80000400818B900200D
:10B090002188685402E00120218868542088401CDF
:10B0A00020800020CEE7000010B58AB000BF00BFAE
:10B0B00001208DF826004FF6F070ADF82400B74A55
:10B0C00009A90120A8DF044600BF204608B10AB044
:10B0D00010BD00BF202101A8FEF7F7F94FF6F1706F
:10B0E000ADF8040001208DF806000220ADF808003C
:10B0F000ADF80A0001208DF81000A94803909DF8D2
:10B10000110020F00200801C8DF811009DF8110044
:10B1100020F0080008308DF8110001208DF815008E
:10B120008DF816009D4908888A1C01A900F0E2FFED
:10B130000446202101A8FEF7C8F94FF6F270ADF8D9
:10B14000040001208DF806001020ADF80800ADF8CD
:10B150000A0001208DF81000924803909DF811001C
:10B1600020F00200801C8DF811009DF8110020F0E5
:10B17000080008308DF8110001208DF815008DF8B9
:10B180001600864908888A1C01A900F0B3FF04460E
:10B19000202101A8FEF799F94FF6F370ADF80400ED
:10B1A00001208DF80600ADF80800ADF80A008DF812
:10B1B00010007D4803909DF8110020F00200801CD3
:10B1C0008DF811009DF8110020F0080008308DF86E
:10B1D000110001208DF815008DF816006F490888C0
:10B1E0008A1C01A900F086FF0446202101A8FEF771
:10B1F0006CF94FF6F470ADF8040001208DF80600EC
:10B200000220ADF80800ADF80A0001208DF810000A
:10B21000664803909DF8110020F00200801C8DF814
:10B22000110001208DF815005C49088801F10A021F
:10B2300001A900F05FFF0446202101A8FEF745F9AF
:10B240004FF6F570ADF8040001208DF806000220DD
:10B25000ADF80800ADF80A0001208DF81000544840
:10B2600003909DF8110020F00200801C8DF8110061
:10B270009DF8110020F0080008308DF81100012021
:10B280008DF815008DF81600444908888A1C01A91C
:10B2900000F030FF0446202101A8FEF716F94FF612
:10B2A000F670ADF8040001208DF806000220ADF81C
:10B2B0000800ADF80A0001208DF810003D48039009
:10B2C0009DF8110020F00200801C8DF811009DF8FF
:10B2D000110020F0080008308DF8110001208DF8D1
:10B2E00015008DF816002D4908888A1C01A900F068
:10B2F00001FF0446202101A8FEF7E7F84FF6F7709A
:10B30000ADF8040001208DF80600ADF80800ADF896
:10B310000A008DF81000284803909DF8110020F0D5
:10B320000200801C8DF811009DF8110020F008002B
:10B3300008308DF8110001208DF815008DF81600E9
:10B34000164908888A1C01A900F0D4FE0446202171
:10B3500001A8FEF7BAF84FF66070ADF804000120BE
:10B360008DF80600ADF80800ADF80A008DF8100061
:10B37000124803909DF8110020F00200801C8DF807
:10B38000110001208DF815000449088801F10A0216
:10B3900001A900F0AFFE0446204698E68C23002069
:10B3A00070230020CC29002072230020732300206A
:10B3B0007523002077230020792300207A230020A2
:10B3C00070B504460D4605B104B970BDA61D2088B0
:10B3D000502803D1304600F0ABF900E000BF00BFB9
:10B3E00000BFF2E72DE9F04106460C46154601275D
:10B3F000082E59D2DFE806F0040E1C24303C4850D9
:10B40000022C05D1224629462A48FEF745F800E0DD
:10B4100000274BE0102C09D110212748FEF755F8E2
:10B42000224629462448FEF737F800E000273DE091
:10B43000012C03D128782149087000E0002735E06D
:10B44000022C07D11E480021018022462946FEF722
:10B4500023F800E0002729E0022C07D11948002139
:10B46000018022462946FEF717F800E000271DE07C
:10B47000022C07D114480021018022462946FEF7FC
:10B480000BF800E0002711E0012C03D128780F49C8
:10B49000087000E0002709E0012C03D128780C494E
:10B4A000087000E0002701E0002700BF00BF384619
:10B4B000BDE8F08170230020CC29002072230020F9
:10B4C0007323002075230020772300207923002098
:10B4D0007A230020F8B505460F462888212850D049
:10B4E00006DC10280BD011282CD013287BD158E073
:10B4F0003B287AD0522865D05628F7D183E0072020
:10B5000000F040FB044600BF264626B100BF30468F
:10B51000FFF75AF800BF00BFA888434908800846D3
:10B520000188424801F073FF044600BF264626B159
:10B5300000BF3046FFF748F800BF00BF002003F00F
:10B5400005FE6FE04FF6FF703749088001F06AFC96
:10B55000B0B1C8213648FDF7B8FF26223549344836
:10B56000FDF79AFF26223249002000F0A3FF304960
:10B5700081F8260027212E4802F0C0FFFEF794FB39
:10B5800050E000200090A88869468FDF044600BF85
:10B59000264626B100BF3046FFF716F800BF00BFB1
:10B5A00040E000231A4685211F4800887FDF0446BB
:10B5B00000BF264626B100BF3046FFF705F800BFA2
:10B5C00000BF2FE000231A46194617480088B1DF54
:10B5D000044600BF264626B100BF3046FEF7F4FF02
:10B5E00000BF00BF1EE01CE0FFE7A888132176DF44
:10B5F000044600BF264626B100BF3046FEF7E4FFF2
:10B6000000BF00BF0EE0A888132176DF044600BF0C
:10B61000264626B100BF3046FEF7D6FF00BF00BF6A
:10B6200000E000BF00BFF8BDCC220020282400208D
:10B63000962500207025002070B504460D46208810
:10B64000102806D0112808D012280ED0502810D16A
:10B6500007E0204602F0ECFF0CE0204603F04CF837
:10B6600008E0204603F066F904E0204602F0C8FF37
:10B6700000E000BF00BF70BD2DE9F04104460F4659
:10B68000A6882088102806D0112817D019283DD068
:10B690001A2848D116E003F003FA304603F0DCF92B
:10B6A00020B900BF0420FEF78FFF06E0E07B0128F1
:10B6B00003D031461D4801F020FE34E0304603F04F
:10B6C00013FA30E0207A0509042D01DB012000E0A7
:10B6D00000200246314615480C3001F0F9FA032DDE
:10B6E00001DB012000E00020024631460F4808300F
:10B6F00001F0EEFA022D01DB012000E000200246FD
:10B7000031460A48001D01F0E3FA0CE0207A48B9FE
:10B71000607AC0F3C0052A46314604480C3001F077
:10B72000D7FA00BF00BF00BFBDE8F0815C29002050
:10B73000F0B589B00546142102A8FDF7C6FE002425
:10B740000026AC7A0CB909B0F0BD00200790089033
:10B75000002606E005F10C00805D02A98855701CEA
:10B76000C6B2A642F6DB6888A0F57F40F13807280C
:10B7700070D2DFE800F004223683495C70009DF847
:10B780000800FE2815D19DF80900012811D13DA01F
:10B79000006801900220ADF81C0001A8089001F09B
:10B7A0001DFB0746298807AAACDF0120364908702F
:10B7B00002E000203449087061E033480078012835
:10B7C0000ED1102C0CD1102202A93048FDF764FED6
:10B7D000102202A92E48FDF75FFE01202D490870B6
:10B7E0004DE02948007801280DD1012C0BD19DF89E
:10B7F000080029490870084600782549083908706A
:10B800000120244908703AE01F48007801280DD132
:10B81000022C0BD12148BDF8081001801C480838C3
:10B82000BDF80810418001201A49087027E0164829
:10B83000007801280DD1022C0BD11948BDF8081051
:10B84000018013480838BDF8081081800120114993
:10B85000087014E012E00C48007801280DD1012C8A
:10B860000BD19DF808000F49087008460078084978
:10B870000839487001200749087000E000BF00BF88
:10B8800000BF60E7FE0200007B230020CC290020DF
:10B89000782500207C2300207223002075230020BF
:10B8A000772300207923002070B50446204603F05A
:10B8B0009CFD054605F0010070BD38B502F068F842
:10B8C000044600BF254625B100BF2846FEF77CFE92
:10B8D00000BF00BF002000906946012001F0B2FFC8
:10B8E000044600BF254625B100BF2846FEF76CFE82
:10B8F00000BF00BF684601F0FFFF044600BF2546B9
:10B9000025B100BF2846FEF75FFE00BF00BF38BD6F
:10B910007CB500240DE00848055D0126002000905C
:10B920003346024601460190284601F043FE00BF1F
:10B93000641C042CEFD37CBD38F7010010B504461D
:10B9400004F0010008B100F04BF804F0020008B167
:10B95000FFF7DEFF10BD000010B502460949885C04
:10B9600000BF4FF0A0442146D1F8043501248440A3
:10B970009C43C1F80845012484401C40C1F80C4593
:10B9800000BF10BD34F7010010B504460249085D40
:10B99000012101F05CFE10BD34F7010010B5044632
:10B9A0000249085D002101F052FE10BD34F701008C
:10B9B00010B50146094B585C00BF4FF0A044234628
:10B9C00000BFD3F80445C44004F001040CB10120C9
:10B9D00000E00020024682F0010010BD34F70100B3
:10B9E0007CB500240CE00948055D0020009003466A
:10B9F000012211460190284601F0DCFD00BF641CC5
:10BA0000042CF0D300F004F87CBD000034F70100F2
:10BA100010B5002403E02046FFF7B6FF641C042C99
:10BA2000F9D310BD10B5002403E02046FFF7B6FFA0
:10BA3000641C042CF9D310BD02464FF0FF300021E6
:10BA400006E0054B5B5C934201D1084602E0491CCD
:10BA50000429F6D300BF704738F701002DE9F04103
:10BA600006460F464FF0000800243046FFF7E4FF7B
:10BA70000446042C3ED20FB3012F02D0022F38D13E
:10BA800030E004EB4400214911F8008004EB44004D
:10BA90000844407850B11E4A4FF480411D48006868
:10BAA000FEF714FE05460DB91948067004EB440074
:10BAB000164908448078184908551AE01548006866
:10BAC000FEF71FFE1448005D04EB44010F4A1144C9
:10BAD0008978884205D104EB44001146084490F867
:10BAE000028006E004EB44000849084490F8018015
:10BAF00000BF00BFB8F1000F06D00848006818B1B9
:10BB00004046064909688847BDE8F081D0280020F2
:10BB10001C23002044F701001D23002018230020CF
:10BB20000F2806D10449097881F00101024A1170F9
:10BB300000E000BF00BF7047D222002030B50346AE
:10BB40000020042B19D279B1012902D0022911D188
:10BB500004E003EB43040A4D2A550DE003EB4304D4
:10BB6000074D2C44627007E003EB4304044D2C4462
:10BB7000A27001E0072000BF00E0072030BD0000F8
:10BB8000D028002070B5044600250548007800F054
:10BB9000010018B1204600F04BF80546284670BD5C
:10BBA0001023002070B505460E4600241748056096
:10BBB0001748066005F0020090B134B940F2333204
:10BBC00004211448FEF77AFC044614B9FEF760FC21
:10BBD00004462CB9104A00211048FEF731FD0446F6
:10BBE00005F0010080B10120FFF7A8FE2CB90C4A36
:10BBF00000210C48FEF724FD04462CB90A4A012115
:10BC00000A48FEF71DFD0446204670BD10230020A3
:10BC10001823002048F70100E5BF010044F70100A8
:10BC20006DCF01003CF7010079A3010040F701004E
:10BC30002DE9F047044600260025DA48007820B1B7
:10BC40000020D849087001F07DF9182C7ED2DFE879
:10BC500004F00C16174A7EB2F6F4F3F2F1F0EFEEB0
:10BC6000EDECEBEAE9E8E7E6E5E401F06BF9CE4854
:10BC70000068FEF746FD0646CC4804708DE100BF23
:10BC80000020FFF795FE58B10020FFF77DFE022C43
:10BC900002D14FF4E16001E04FF47A60054609E01B
:10BCA0000020FFF77BFE022C01D1C82001E04FF4F9
:10BCB000C8700546BD4804704FF40040A5FB001055
:10BCC0004FF47A73CF1840F100015A000023384630
:10BCD000FDF7A2FB814600224946B3480068FEF703
:10BCE000F5FC064659E10020FFF762FE58B100203E
:10BCF000FFF74AFE032C02D14FF4487001E04FF4E5
:10BD00007A60054609E00020FFF748FE032C01D1C8
:10BD1000C82001E04FF4C8700546A44804704FF4F1
:10BD20000040A5FB00104FF47A728F1840F100011B
:10BD3000520000233846FDF76FFB8146002249463A
:10BD400099480068FEF7C2FC064626E124E100207F
:10BD5000FFF72EFE58B10020FFF716FE042C02D18B
:10BD60004FF47A6001E04FF47A6005460AE0002063
:10BD7000FFF714FE042C02D14FF4C87001E04FF419
:10BD8000C8700546894804704FF40040A5FB0010B8
:10BD90004FF47A73CF1840F100015A00002338465F
:10BDA000FDF73AFB8146002249467F480068FEF7CE
:10BDB0008DFC0646F1E00020FFF7FAFD50B10020AF
:10BDC000FFF7E2FD052C01D1C82001E04FF47A60B5
:10BDD000054609E00020FFF7E1FD052C01D1C82050
:10BDE00001E04FF4C8700546704804704FF40040FD
:10BDF000A5FB00204FF47A73D71840F100015A00D8
:10BE000000233846FDF708FB814600224946664874
:10BE10000068FEF75BFC0646BFE0B8E0B6E0AAE0CB
:10BE2000A1E098E092E05FE05DE05BE059E057E080
:10BE300051E042E033E024E015E00EE0FFE70020AF
:10BE4000FFF78AFD59480470002240F266615648A7
:10BE50000068FEF73BFC06469FE00020FFF79EFDD2
:10BE60005248047099E001204E490870FFF774FDB4
:10BE7000002240F266614C480068FEF727FC064647
:10BE80008BE0012047490870FFF766FD00224FF460
:10BE9000005145480068FEF719FC06467DE0012088
:10BEA00040490870FFF758FD002240F266613E48A5
:10BEB0000068FEF70BFC06466FE001203949087068
:10BEC000FFF74AFD00224FF4005137480068FEF7A3
:10BED000FDFB064661E0FFF7A5FD344804705CE019
:10BEE00000BF00BF00BF00BF31480068FEF709FC7B
:10BEF0000646C4F1110515B30EBB012D18D9A8B221
:10BF0000C82148434FF4004180FB01104FF47A727E
:10BF10008F1840F10001520000233846FDF77CFAEB
:10BF200081460022494622480068FEF7CFFB0646BC
:10BF30000220FFF733FD01201E49087005E00220B2
:10BF4000FFF722FD00201B49087026E000F0FAFFF1
:10BF50001648047021E000F0F5FF0020FFF71EFDF9
:10BF60001248047019E000F0EDFF0120FFF716FD04
:10BF70000E48047011E000F0E5FF0020FFF70EFD11
:10BF80000120FFF70BFD0948047006E000BFFFF732
:10BF900049FD0648047000E000BF00BF3046BDE820
:10BFA000F08700000D2300203CF701000C23002047
:10BFB00040F70100142300200246002108E0074B4F
:10BFC0001B6803EBC1000378934200D17047491C02
:10BFD000034800788142F2DB0020F7E7B823002015
:10BFE000BC23002010B5044620780221FFF736FD5F
:10BFF00010BD000070B50F490220FFF7D3FD0446C5
:10C0000000BF254625B100BF2846FEF7DDFA00BF78
:10C0100000BF0F2201210846FFF790FD044600BF34
:10C02000254625B100BF2846FEF7CEFA00BF00BF67
:10C0300070BD000021BB01004FF0FF31054A42F8FE
:10C040002010082804DBFF23A0F1080150325354CC
:10C0500070470000F02900200146024850F82100F6
:10C0600070470000F02900202DE9F04F03460C46F0
:10C070004FF0FF390AB1002000E0082084460AB1E1
:10C08000082000E00C208046614624E0154850F866
:10C090002100401CF0B91D460846274616464FFAB7
:10C0A00080FBDFF840A00AF1300A0AF805B0DFF89B
:10C0B00034A04AF820704EB94FFA85FBA0F1080A67
:10C0C000DFF820E00EF1500E0EF80AB000BF4FFA74
:10C0D00081F902E0491C4145D8D300BF4846BDE87C
:10C0E000F08F0000F02900200146014840567047BB
:10C0F000202A002070B590B006460C461546A07860
:10C1000018B901208DF80E0002E0A0788DF80E001D
:10C110002088ADF80C0000200290607C02A902F09B
:10C12000B5FFA07C0DF1090102F0B0FFE07B08B182
:10C13000012000E000209DF80A1060F3C3018DF893
:10C140000A10207C08B1012000E000209DF80A10B0
:10C1500060F304118DF80A10207B08B1012000E083
:10C1600000209DF80A1060F300018DF80A10207D70
:10C1700008B1022000E001209DF80A1060F342019E
:10C180008DF80A101C2109A8FDF79FF9607BC0F308
:10C19000001018B9607BC0F34010F8B10020009087
:10C1A000E07C0DF1010102F071FF00BF9DF800007D
:10C1B00020F00F00401C8DF800009DF8000020F0DA
:10C1C000F00010308DF8000000BF9DF8020020F054
:10C1D0000600801C8DF80200CDF838D0607B8DF809
:10C1E0002400A07B8DF82500142104A8FDF76DF92B
:10C1F00003A8049002A80590A088ADF81C00A068D0
:10C2000020B1E088ADF81800A0680890A069002867
:10C2100049D000200190A0690088ADF82C00A069E9
:10C220004088ADF82E00A06940680A9001A80D90E2
:10C23000A169087B01A902F029FFA169487B0DF1E2
:10C24000050102F023FFA069807A08B1012000E017
:10C2500000209DF8061060F3C3018DF80610A06958
:10C26000C07A08B1012000E000209DF8061060F3BC
:10C2700004118DF80610A069007A08B1012000E0D1
:10C2800000209DF8061060F300018DF80610A069EB
:10C29000807B08B1022000E001209DF8061060F3C9
:10C2A00042018DF80610E06908B1E0690C902B4658
:10C2B00004AA09A93046AADF10B070BD70B50546C2
:10C2C0000DB9094C01E0084C083409E0204600F0A3
:10C2D00033FE064606B904E028467168884700BF69
:10C2E000F4E700BF70BD0000E429002010B504464B
:10C2F0002CB90120064948700020FFF7DFFF012C10
:10C3000004D1012002498870FFF7D8FF10BD00005A
:10C31000DC2900202DE9F047024613468C46D3E97C
:10C320000245DCE90267B6EB040877EB050002D3AF
:10C330000120BDE8F0870020FBE70146887801284E
:10C3400005D191F82000012801D100207047886AAA
:10C35000042802D0486A042801D10020F6E7012011
:10C36000F4E733B58BB00546002000900C9878B107
:10C3700000240BE021460CA800F0B0FF28B1009A81
:10C38000501C009001A820F81240641C142CF1D31A
:10C390002C2269462846FDF77FF80DB030BD0146D6
:10C3A0000888062808DB0888B0F5486F06DD08888D
:10C3B0004FF6FF72904201D0072070474888062848
:10C3C00008DB4888B0F5486F06DD48884FF6FF72F5
:10C3D000904201D00720F0E708884FF6FF729042A4
:10C3E00008D04888904205D008884A88904201DDEC
:10C3F0000720E2E70020E0E72DE9F04107460D467F
:10C40000144698462088801D404502D90C20BDE87E
:10C41000F0813846FFF7C3FF064600BF304600B143
:10C42000F5E700BF0520218868542088401C208043
:10C430001220218868542088401C208022885119AD
:10C44000388802F0D8FF21880844208022885119BA
:10C45000788802F0D0FF2188084420800020D6E7A9
:10C46000F8B505460C46607A88B9207A10B91048AC
:10C47000476801E00E4887682A4639466068FEF73B
:10C4800025F9064616B1304602F0D4FC0EE0002035
:10C4900020720748406948B101208DF80000ADF8CE
:10C4A0000250034841696846884700BFF8BD000054
:10C4B0003429002030B50B46002100BF10E05D5C40
:10C4C0006840002409E000F001051DB1401080F033
:10C4D0008C0000E04010651CECB2082CF3DB491C1A
:10C4E0009142ECD330BD00002DE9F041804600249C
:10C4F00014E01248006800EBC405287801F066FCDF
:10C5000007466878012800D100E00020784080F0DC
:10C5100001062878314600F055FB641C0848007875
:10C520008442E6DB0748D0E9001000235940584018
:10C53000014301D002F020FFBDE8F081B8230020C4
:10C54000BC230020C823002070B505460C464FF4DC
:10C55000803000FA04F1284600F01AFB70BD70B577
:10C5600005460C464FF4A07000EB840086B23146BD
:10C57000284600F09FFB70BD2DE9F04704460D46AC
:10C5800016461F464FF4803000FA05F84FF4A070AD
:10C5900000EB85001FFA80F926F07F4641462068AF
:10C5A00001F0FFF84146206801F0F5F8494620689F
:10C5B00001F0EAF832462946206801F0DCF84146ED
:10C5C000206801F0EBF81FB14146206801F0ECF85B
:10C5D000BDE8F08710B50446206801F0D1F810BD21
:10C5E0002DE9F04303460C4616465879254941F893
:10C5F00020605879244901EBC000007918B1082265
:10C600001046BDE8F08321881868C0F8081500BFFF
:10C6100093F90450A7782846394600280CDA4FEAE7
:10C62000417C4FEA1C69DFF864C000F00F08A8F1F4
:10C6300004080CF8089007E04FEA417C4FEA1C68B8
:10C64000DFF84CC00CF8008000BF00BF93F9040075
:10C6500000BF00F01F050121A9404509AD0005F10B
:10C66000E025C5F8001100BF00BF01205979064D33
:10C6700005EBC10108715879294641F83030002294
:10C680001046BEE7F4230020F823002018ED00E058
:10C6900000E400E010B5014691F9040000F01F032A
:10C6A00001229A40024B440943F8242000BF10BDE8
:10C6B00000E200E070B505460C46224602212846FD
:10C6C00000F072FA70BD10B504464FF48271204636
:10C6D00000F0F0FA10BD10B504460021206801F00A
:10C6E00066F810BD10B504460421206801F05FF81B
:10C6F00010BD2DE9F84F04460D46164699464FF4F5
:10C70000803000FA05FB4FF4A07000EB850080B28A
:10C71000009026F07F465946204600F039FA2068FE
:10C7200001F02EF80746206800F5A86151F82510A1
:10C730008A463A462946206801F01DF8206800998B
:10C7400001F022F83946504602F070FD012806D16A
:10C75000102001F05BFA2068009901F015F82068BC
:10C7600001F00EF807463946304602F05FFD80467C
:10C770005946206801F012F8B8F1010F0FD1721C70
:10C780002946206800F0F7FF102001F03FFA2068EA
:10C7900000F0F6FFB84227D00D20BDE8F88F3246F2
:10C7A0002946206800F0E7FF206800F0E9FF07460F
:10C7B000701E394602F03AFD80466FF07F40A0EBD4
:10C7C0000900404501D20D20E7E7B8F1000F0BD179
:10C7D000721C2946206800F0CEFF206800F0D0FFD0
:10C7E000B84201D00D20D8E701225946204600F07A
:10C7F000DBF90020D1E70000054800680A2805D1D0
:10C800000348001D006808B9012070470020FCE7BC
:10C810003001001013480078062820D11148001D6F
:10C82000007800F00F00D0B90E480830007800F012
:10C83000F000302801D1012070470A480830007804
:10C8400000F0F000402801D10120F5E7054808304C
:10C85000007800F0F000502801D10120ECE7002022
:10C86000EAE70000E00F00F013480078062820D126
:10C870001148001D007800F00F00D0B90E480830B4
:10C88000007800F0F000302801D1012070470A48FC
:10C890000830007800F0F000402801D10120F5E7D1
:10C8A00005480830007800F0F000502801D1012040
:10C8B000ECE70020EAE70000E00F00F01C48006809
:10C8C0000A280BD11A48001D006808B901207047DA
:10C8D0001748001D0068012800D1F8E715480078C6
:10C8E000062822D11348001D007800F00F00E0B99F
:10C8F00010480830007800F0F000302801D1012005
:10C90000E5E70C480830007800F0F000402801D13D
:10C910000120DCE707480830007800F0F0005028DC
:10C9200001D10120D3E70020D1E70120CFE70000AB
:10C9300030010010E00F00F00A48007806280ED100
:10C940000848001D007800F00F0040B90548083085
:10C95000007800F0F000302801D10120704700205D
:10C96000FCE70000E00F00F006480068062806D14A
:10C970000448001D0068062801D1012070470020EE
:10C98000FCE7000030010010084800680A280BD1BD
:10C990000648001D006808B9002070470348001DC4
:10C9A0000068012800D1F8E70120F6E73001001007
:10C9B0001C4800680A280BD11A48001D006808B9F5
:10C9C000012070471748001D0068012800D1F8E7D2
:10C9D00015480078062822D11348001D007800F081
:10C9E0000F00E0B910480830007800F0F00030285F
:10C9F00001D10120E5E70C480830007800F0F00094
:10CA0000402801D10120DCE707480830007800F019
:10CA1000F000502801D10120D3E70020D1E7012008
:10CA2000CFE7000030010010E00F00F00A48007866
:10CA300006280ED10848001D007800F00F0040B90C
:10CA400005480830007800F0F000302801D10120BE
:10CA500070470020FCE70000E00F00F01C48006871
:10CA60000A280BD11A48001D006808B90120704738
:10CA70001748001D0068012800D1F8E71548007824
:10CA8000062822D11348001D007800F00F00E0B9FD
:10CA900010480830007800F0F000302801D1012063
:10CAA000E5E70C480830007800F0F000402801D19C
:10CAB0000120DCE707480830007800F0F00050283B
:10CAC00001D10120D3E70020D1E70120CFE700000A
:10CAD00030010010E00F00F00A48007806280ED15F
:10CAE0000848001D007800F00F0040B905480830E4
:10CAF000007800F0F000302801D1012070470020BC
:10CB0000FCE70000E00F00F00A48007806280ED18C
:10CB10000848001D007800F00F0040B905480830B3
:10CB2000007800F0F000302801D10120704700208B
:10CB3000FCE70000E00F00F0134800680A280BD162
:10CB40001148001D006808B9012070470E48001DFB
:10CB50000068012800D1F8E70C480078062810D1B9
:10CB60000A48001D007800F00F0050B9074808304F
:10CB7000007800F0F000502801D10120E5E7002006
:10CB8000E3E70120E1E7000030010010E00F00F0D2
:10CB900070B504460D462946206800F0FCFD294684
:10CBA000206800F0FEFD70BD70B504460E461546C7
:10CBB0003146206800F0F2FD1DB13146206800F0DA
:10CBC000F3FD70BDF8B505460C46284602F0F8FAAC
:10CBD00005286AD2DFE800F003212A393F00DCB1E2
:10CBE0000121284602F0FCFA002000906846FDF77B
:10CBF00092FD2A460126002730463946FCF73DFCC7
:10CC00002B4AD2E9003218431143294A03C29DF846
:10CC10000000FDF787FD00BF47E00CB1022000E0F7
:10CC200000200146284602F0DBFA3EE044B1032131
:10CC3000284602F0D5FA0121284602F007FC03E05D
:10CC40000121284602F0CCFA2FE01CB90421284625
:10CC500002F0C6FA29E024B10321284602F0C0FA06
:10CC600022E00021284602F0BBFA0021284602F00B
:10CC7000EDFB002000906846FDF74DFD2A46012699
:10CC8000002730463946FCF7F8FB0A46C143D0433B
:10CC9000074B0CCB11401840054AC2E900109DF823
:10CCA0000000FDF73FFD00BF00BF00BFF8BD000062
:10CCB000C823002070B505460C462868015929B1E3
:10CCC0002146286800F060FD012070BD0020FCE7CF
:10CCD00070B505460E46144624B13146284600F08C
:10CCE0000CFB03E03146284600F0E9FA70BD30B590
:10CCF00004461088C01C984201D90C2030BD022087
:10CD0000158848551088401C10800120158848550A
:10CD10001088401C108015884C551088401C1080CD
:10CD20000020EBE770B504460D46D822115B0122C6
:10CD3000D4F8D400FDF7F9FD064606B1357004F1CC
:10CD40003C0204F1D40104F1540072DF70BD0020F4
:10CD500000BF4FF080510969084670473EB500BFDB
:10CD60009DF8000020F00F00401C00909DF800008E
:10CD700020F0F0001030009000BF092214A1684696
:10CD80007CDF044600BF254625B100BF2846FDF7DD
:10CD90001BFC00BF00BF0020019002901020ADF8E6
:10CDA00004003C20ADF806000020ADF808004FF468
:10CDB000C870ADF80A0001A87ADF044600BF254616
:10CDC00025B100BF2846FDF7FFFB00BF00BF3EBDF9
:10CDD0004265654C696E6B65720000000148008811
:10CDE00070470000CC22002070B50B48FFF7F2FB23
:10CDF0000A4B0CCB841843F10005094903C9201ADA
:10CE000075EB010004D24FF08073E41845F1000582
:10CE10002046294670BD0000D0230020E0230020DA
:10CE2000E823002001480078704700007C230020A0
:10CE30002DE9F04104468846E0B2FFF7BDF805460B
:10CE4000287800F0C3FF07466878012800D100E089
:10CE50000020784080F001064EB10648D0E900106D
:10CE6000002359405840014301D102F085FABDE842
:10CE7000F0810000C823002010B500F069FC10BD4F
:10CE8000024600210CE001EB8100074B33F8200043
:10CE9000904204D101EB810003EB80007047491CF4
:10CEA0000029F0D00020F9E7202900202DE9F041E9
:10CEB0000446A08800EB020CB4F80480904501DD24
:10CEC000104600E0A088A8EB0005E088C618B4F87A
:10CED0000680984501DD184600E0E088A8EB0007D1
:10CEE0004888B4F80080404504DB4888B4F80280E4
:10CEF000404502DD0020BDE8F0818888A84202D3C9
:10CF00008888604501D90020F5E7C888B84202D377
:10CF1000C888B04201D90020EDE70120EBE710B549
:10CF20000446FFF714FFB4FBF0F100FB114008B911
:10CF3000012010BD0020FCE70146086808B1026826
:10CF40000A60704710B50848007850B1002405E029
:10CF5000022C02D02046FEF717FD641C042CF7D3E8
:10CF600001E0FEF755FD10BD1423002010B5044666
:10CF70000448007800F0010018B103480078FEF77B
:10CF800057FE10BD102300200C23002010B500F028
:10CF900021FE00200149887010BD0000DC2900201E
:10CFA000F7210180172141800021017141717047F3
:10CFB0001FB501203A49086000BF02F0EDF901F009
:10CFC000D0FA2621374801F03FFA01F037FD022060
:10CFD00000F0A0FA02F0DCFA022000F09BFA02F066
:10CFE000F9FA314908800988A1F2E710FCF700FC42
:10CFF000804600222D4BFCF78CFB064600222C4B72
:10D00000FCF787FB04462B4A2B4BFCF769FA0022FE
:10D010002A4BCDE90001FCF704FB82460022284B95
:10D02000FCF705FBCDE90201FCF707FC2549088068
:10D0300025480078254948710021254801F082F9EA
:10D04000244801F037F901F05FF9FEF736FCFFF7ED
:10D0500085FE01F047FFFDF73FF9FEF7CBFF1E4AC3
:10D0600001211E48FDF7ECFA1D4A00211D48FDF77D
:10D07000E7FA00224FF416011A480068FDF726FB74
:10D08000002241F2333115480068FDF71FFB00BF55
:10D09000FFF7F2FEFDF7A6FA01F044F9F8E7000009
:10D0A0007805004070250020CA22002000001440AE
:10D0B00000003C40CDCCCCCCCCCC0C400000D03FD0
:10D0C0000088C340D0220020CE220020D32200209E
:10D0D000F4220020FC220020CDA2010070F6010005
:10D0E00029F2010074F601002DE9F04105460E46D3
:10D0F00014469846A888871C2088801C38444045E0
:10D1000002D90C20BDE8F081FE2F01D90C20F9E7EF
:10D11000781C218870542088401C2080FF202188A2
:10D1200070542088401C208022889119288802F0A1
:10D1300062F9218808442080A88800280DDDA868AD
:10D1400008B90720DEE7AA8823889819A968FCF7A0
:10D15000A3F92088A988084420800020D2E72DE97F
:10D16000F84F05460F46144698462878012804D102
:10D17000687810B90720BDE8F88F2088801C4045EA
:10D1800008D82878012807D12088801C69780844AD
:10D19000404501D90C20EEE72088A8EB0000801E56
:10D1A00086B200962188891CC81969467DDF8146B0
:10D1B00000BF484600B1DEE700BF2878022804D04F
:10D1C0006878BDF80010884206DBBDF80000B04268
:10D1D00002DC4FF0090A0BE04FF0080A287801281A
:10D1E00005D16878B04202DC6878009000E00096D3
:10D1F000BDF80000FE2801D90C20BCE7BDF80000F6
:10D20000401C218878542088401C2080208807F802
:10D2100000A02088401C20802088BDF80010084411
:10D2200020800020A7E710B5044609B90E2010BDE4
:10D2300092FBF3F003FB102008B10920F7E721600F
:10D2400000206060A060A281E38100BFEFE770B5BD
:10D2500004460D4629462046FBF7DEFF18B12A8812
:10D260002168881870BD0020FCE770B505460C46A3
:10D2700020886188884204D12846FCF70FF80120F5
:10D2800070BD0020FCE770B504460D4629462046D7
:10D29000FBF7E7FF18B16A882168881870BD002085
:10D2A000FCE770B505460C4620886188884204D1A9
:10D2B0002846FBF7CDFF012070BD0020FCE770B5CC
:10D2C00005460C4604F01F0301229A40D14362092F
:10D2D00005EB820000F020F8064670BD10B502464E
:10D2E000480952F8200001F01F040123A340184010
:10D2F00008B1012010BD0020FCE770B505460C46C2
:10D3000004F01F03012202FA03F1620905EB820017
:10D3100000F00DF8064670BDF8B504460D466A46A5
:10D3200029462046FBF7F5FF06460098F8BDF8B5FC
:10D3300004460D466A4629462046FBF7DDFF0646B1
:10D340000098F8BD30B502460B46D40802F007023B
:10D35000012090401D5D284030BD30B50B46C2080D
:10D3600000F007009C5C012585402C439C5430BD97
:10D370002DE9F04106460F463D46B488012C01DBFD
:10D38000BDE8F0813088102806D0112809D03A284D
:10D390000CD0552814D10EE03146284601F087F90B
:10D3A0000FE03146284601F0D9F90AE03146284617
:10D3B00001F018FA05E03146284601F0DBF900E0FB
:10D3C00000BF00BF04EB4401A81D00EB4100007941
:10D3D000D8B104EB4402A81D30F812102046A5DF96
:10D3E0008046B8F1000F0ED1002104EB4402A81DC5
:10D3F00000EB42000171012104EB4402A81D00EB87
:10D400004200417100E000BF00BF00BFB8E7024624
:10D4100000BF0AB90E20704700BF00BF1078DE2899
:10D4200001D00820F7E700BF51800020F3E7024653
:10D4300000BF0AB90E20704700BF00BF09B90E2017
:10D44000F9E700BF1078DE2801D10820F3E708686B
:10D450005060DE2010704FF6FF7050800020EAE729
:10D4600070B504460E4600BF06B970BD00BF00BFD0
:10D4700004B9FAE700BF354600BF2878DE2800D09F
:10D48000F3E700BFA0886988884202D1284601F0EE
:10D49000C7FF2088012806D0022809D0112811D002
:10D4A000512817D109E0211D284601F033FA12E076
:10D4B000211D284601F02DFA0DE0211D284601F01E
:10D4C000D3F908E0A0886988884202D14FF6FF703E
:10D4D000688000E000BF00BF00BFC6E701464FF014
:10D4E0008040405808B1012070470020FCE708B593
:10D4F00000224FF080410A500958009100BF08BD3A
:10D5000001490860704700000803004001229107AC
:10D510000A5070472DE9F04104460CB9BDE8F0818E
:10D5200000BF4FF47A7505B904E0054FAE013046EF
:10D53000B84700BF601E041EF3D100BFEEE7000035
:10D5400001F7010010B500240C48007808B18524CB
:10D5500011E000200949886048600861C8600848F7
:10D5600000F026FB044600F06DFA08B900F016FB47
:10D57000012002490870204610BD0000DC2900206F
:10D58000EDC2010008B5002000906846FDF7C3F821
:10D590000748C068401E0649C8600846C06808B908
:10D5A000FFF7F4FC9DF80000FDF7BCF808BD000093
:10D5B000DC290020F0B5DDE9054500BF4FF0A047AC
:10D5C0003E4641EA420747EA830747EA042747EA1B
:10D5D000054C06F5E06747F820C0F0BDF0B5DDE981
:10D5E000054500BF4FF0A0473E4641EA420747EAE3
:10D5F000830747EA042747EA054C06F5E06747F842
:10D6000020C0F0BD10B50A4600BF4FF0A043194638
:10D6100001F5E06353F8203023F4403401F5E06372
:10D6200043F8204053F8203043EA024401F5E06318
:10D6300043F8204010BD014600BF4FF0A040024615
:10D6400000BFD2F81005C84000F00100704710B5C7
:10D6500061B900BF00BF4FF0A0421346012404FA95
:10D6600000F2C3F80C2500BF00BF0CE000BF00BFF4
:10D670004FF0A0421346012404FA00F2C3F8082533
:10D6800000BF00BF00BF10BD38B50B46074C246873
:10D690000094014606E05DF82140D4F8105515606D
:10D6A000121D491CC4188C42F5D838BD78F701000A
:10D6B00001460148084470470060004038B5044600
:10D6C0002046FFF7F5FF002101602046FFF7F0FF3D
:10D6D0000068009000BF38BD10B504462046FFF733
:10D6E000E7FF0068012800D110BD0020FCE7000022
:10D6F000014908607047000004630040C0F8041549
:10D7000070470146D1F8000400F0010070470000A6
:10D7100010B500200A49087000BF0A49086000BF20
:10D7200000BF00BF00BFBFF35F8F00BF00BF00BFDF
:10D7300000BF0549054800F0B8F9002010BD000001
:10D740000824002004240020B0F80100242B00202D
:10D7500010B500F077F910B141DF044602E020BFB8
:10D7600040BF20BF10BD10B5044600BF2046FCF7E7
:10D770002BFF00BF10BD00F5A86343F821207047C0
:10D780000146D1F80405704708B5002242504258BE
:10D79000009200BF08BDC0F848137047C0F844139A
:10D7A0007047C0F808137047C0F80413704701228F
:10D7B00042507047024A1060121D1160704700000D
:10D7C0002C760040044B03EB00135A60024B03EB32
:10D7D00000131960704700001075004001460348AF
:10D7E000085808B1012070470020FCE70070004095
:10D7F00008B50021034A815011464158009100BFED
:10D8000008BD00000070004001490860704700003A
:10D81000087300400149086070470000047300402D
:10D820000121014A8150704700700040014609B94A
:10D830000E2070470248006808600020F9E70000E9
:10D8400040F90100FEB505460C462046FFF7EEFF05
:10D8500006460EB13046FEBD0020009001900290B9
:10D860008DF8005001208DF802000621ADF804105B
:10D8700069462020226869DF06460020009001905A
:10D88000029001208DF8010069464020226869DF7E
:10D89000064600200090019002908DF80050F7207D
:10D8A000ADF8020069462320226869DF06460020A1
:10D8B00000900190029001208DF8000069462268D6
:10D8C00069DF064600200090019002904FF4B0609E
:10D8D00000906946A120226869DF0646002000907A
:10D8E000019002908DF800006946A020226869DF4F
:10D8F00006460020AFE7000070B5044626682046C3
:10D9000060DF05462068B04200D800BF15B901208D
:10D9100001490870284670BD0C2400202DE9F04113
:10D92000ADF5027D80461848007818B90DF5027DE6
:10D93000BDE8F0811DE04FF4FA70049004A905A839
:10D9400061DF044604B115E005AD104901A800F0FF
:10D95000ACF809E000BF03980646376828467168AE
:10D96000B84701A800F0C2F800BF03980028F1D121
:10D9700000BFE0E700BF052C04D000BF2046FCF745
:10D9800023FE00BF00BFD1E70C24002034F90100C2
:10D990001CB51B48007808B108201CBD012019499E
:10D9A0000870002001F00EFA112801D10020F4E7E0
:10D9B000002001F025FA1448006801900020009032
:10D9C0006846FCF7A8FE114901A810DF04460CB90F
:10D9D000012000E000200A4908709DF80000FCF7D3
:10D9E000A1FE0CB12046D8E700200649087008497E
:10D9F000087001F0BFFB012001F002FA0020CCE723
:10DA0000092400200B24002010F901006DA501005D
:10DA10000A2400203EB50A49684600F046F809E0AD
:10DA2000684600F03FF8044625686068A8476846E5
:10DA300000F05CF8684600F035F80028F0D13EBDF3
:10DA400004F9010001480078704700000924002013
:10DA50002DE9FF41074618E003A84BDF044604B157
:10DA600014E00F49684600F020F809E000BF029872
:10DA700005462E6869680398B047684600F036F896
:10DA800000BF02980028F1D100BFE5E700BF052CD8
:10DA900004D000BF2046FCF797FD00BFBDE8FF8122
:10DAA00054F9010001468868704770B504460D4678
:10DAB000256028686060204600F001F870BD14E021
:10DAC000D0E900215268914202D100218160704763
:10DAD0004168096842685268914203D04168096808
:10DAE0008160F4E7416808314160E9E710B5044618
:10DAF000A06800B910BD2168A06889680844A060CA
:10DB0000D4E901104968884205D160680830606036
:10DB10002046FFF7D4FF00BFECE770B505460E4680
:10DB20006C6806E020683146AA68904700B903E0B7
:10DB3000246820680028F5D100BF20683060266086
:10DB400070BD014648680068704701464A68106821
:10DB50004A68126822B14A68126812684B681A60F3
:10DB6000704710B503460A460020596807E00C6864
:10DB7000944203D114680C60012003E009680C682A
:10DB8000002CF4D100BF10BD024A034941F8202007
:10DB9000704700003546526E0006014010B500F097
:10DBA000D9F901200149086000BF10BD18050040E7
:10DBB00001460020064A12790AB1852006E0044A8F
:10DBC00011600122024B1A7100225A717047000045
:10DBD000A423002010B50C20FFF798FC00BF00BF65
:10DBE00003480068C0F300400028F8D110BD0000D1
:10DBF0001804004070B5044604B970BD024EA5017A
:10DC00002846B04700BFF8E7C1F7010070B50446E9
:10DC100004B970BD024EA5012846B04700BFF8E721
:10DC200091F801000146080B40B270472DE9F0471A
:10DC300006460D46304600F0DFFEE0B13046FEF706
:10DC400053FA083822490F5CBC11032C08D1304626
:10DC5000FFF7F1FC08B1032000E00220804605E058
:10DC6000012C01D1022000E00320804641463046CD
:10DC7000FFF7C8FC2AE0304600F0CAFE30B3304659
:10DC8000FEF732FA0446A00000F5807087B2204605
:10DC9000104951F8201041F001020E4941F82020AE
:10DCA00000BF3846FFF70AFD7DB13046FEF71CFA8B
:10DCB0008146FEF7D1F98046B8F1000F04D001216A
:10DCC00001FA04F0FFF714FD00BF00BFBDE8F087C4
:10DCD000402A0020106500402DE9FC4704460E460E
:10DCE00017464FF00008204600F078FE10B14FF0C4
:10DCF000080862E0B078C0F3400239462046FEF7DB
:10DD0000B3F90546681C002854D0B078C0F38000F1
:10DD100020BBB07800F0010080B100BF00BF4FF021
:10DD2000A042104600F5E06252F8242022F00201E1
:10DD300000F5E06242F8241000BF0CE096F8019074
:10DD4000002000904B460246014601902046FFF716
:10DD500045FC00BF00BF204600F036FEB078C0F39F
:10DD60004000D0B13078164951F82510154A1140BD
:10DD7000134A42F82510114651F825104FF4F85275
:10DD800002EA04224FF4403303EA00431A431143EA
:10DD90000B4A42F8251000BF0EE0A5F108000A4921
:10DDA000085C317840EA811042B2A5F108000649CA
:10DDB0000A5401E04FF0040800BF4046BDE8FC876C
:10DDC00010650040FFE0FCFF402A002010B504462B
:10DDD0002046FFF730FC08B1012010BD0020FCE711
:10DDE0002DE9F041264890F8580018B1082528463A
:10DDF000BDE8F081002404E0204600F019FE601C1C
:10DE0000C4B2202CF8DB002404E02046FEF714F90D
:10DE1000601CC4B20C2CF8DB1948002141650622B5
:10DE2000134610461946002809DA4E074FEA166CC9
:10DE3000144E00F00F073F1F06F807C003E04E071F
:10DE4000370E114E375400BF00BF062000BF01211E
:10DE500081404209920002F1E022C2F8001100BFA5
:10DE600000BF4FF4BE70FFF729FC4FF00040FFF7F2
:10DE70003FFC0120024981F8580000252846B7E7F9
:10DE8000F029002018ED00E000E400E0034890F8DD
:10DE9000580008B1012070470020FCE7F02900205D
:10DEA0002DE9F05F05468A46144600F0B3FA57465E
:10DEB00005F00308B8F1000F13D0C8F10406A6421C
:10DEC00000D9264632463946284600F05FFD834693
:10DED000A5EB0800594600F073FAA41B35443744FB
:10DEE00000BFA60832463946284600F07FFA05EB07
:10DEF000860507EB860704F00309B9F1000F09D086
:10DF00004A463946284600F041FD06463146284635
:10DF100000F056FA00F04CFABDE8F09F10B5044648
:10DF20002046FEF7FCFF08B9102010BD00F038FABB
:10DF300000BF0648046000BF00BF0548FFF7E1FBD3
:10DF40000028FAD000F034FA0020EEE708E501409E
:10DF500000E001402DE9F04106254FF08040FFF739
:10DF600061FE04462046E21704EBD2625211920091
:10DF700002F1E022D2F800212146E31704EBD3633B
:10DF80005B11A4EB43160123B3401A400AB10122EE
:10DF900000E0002252BB4FF08040FFF743FE0446F2
:10DFA0002E4620463146002807DA4A07170E104A47
:10DFB00000F00F031B1FD75403E04A07130E0D4A4E
:10DFC000135400BF00BF4FF08040FFF72BFE044604
:10DFD000204600F01F02012191404209920002F107
:10DFE000E022C2F8001100BF00BF00BFBDE8F08111
:10DFF00018ED00E000E400E070B505460C4632483C
:10E00000007C10B11126304670BD207910B1207906
:10E01000012805D100BF00202C49086000BF00BFC7
:10E0200029481C3010F8150030B9274890F82D0009
:10E03000401C254981F82D00E17923481C3000F867
:10E040001510217A00EB4500417000BF207800F0E8
:10E0500003006178302202EA01110843A1784FF4ED
:10E06000E06202EA01210843E1784FF4805202EABB
:10E070000131084321794FF4E02202EA01410843CB
:10E0800061794FF4801202EA01510843A17912012B
:10E0900002EA016108430D49103101EB0511886066
:10E0A000227AE1792846FFF78DFB00BF207910B175
:10E0B0002079012805D100BF01200449086000BF74
:10E0C00000BF002630469FE74C2A00200075004024
:10E0D0002DE9F04104460E46334890F82C0018B163
:10E0E00008252846BDE8F0812F48066020782F4992
:10E0F000086000BF6078091D086000BFE0782A4909
:10E1000081F82E00012081F82C000020087481F88D
:10E110002D00486181F82F006FF00040FFF774FB7D
:10E120004FF48270FFF764FB4FF48070FFF760FBE1
:10E130004FF48A70FFF75CFB0722A378104619465C
:10E1400000280ADA4F074FEA1768194F00F00F0C42
:10E15000ACF1040C07F80C8005E04F074FEA176C90
:10E16000144F07F800C000BF00BF072000BF012107
:10E1700081404209920002F1E022C2F8001100BF82
:10E1800000BF0220FFF746FB074890F82E0010B1B1
:10E190000120FFF73FFB00BF01200449F039086070
:10E1A00000BF002528469DE74C2A0020F07500405E
:10E1B00018ED00E000E400E02DE9F04105460F46CF
:10E1C0003B48007C18B111263046BDE8F0810120A3
:10E1D000374908740320FFF717FB01213846FFF782
:10E1E000E9FA334890F82D00012809DD002405E004
:10E1F000E0B200221146FFF7E5FA641C082CF7D3C1
:10E200002B481C3000EB4500427829481C3010F8A0
:10E2100015102846FFF7D6FA0020FFF701FB04206F
:10E22000FFF7FEFA00BF4FF0000842F2107400BF83
:10E230004FF48270FFF7D2FA10B14FF0010805E0F9
:10E240000020FFF7D7FC601E041EF1D100BF00BF05
:10E250004FF48070FFF7CCFA4FF48270FFF7C8FAE2
:10E26000134890F82D00012810DD00240CE0104B1D
:10E270001C3303EB44035A780D4B1C3313F8141072
:10E28000E0B2FFF79FFA641C082CF0D3084890F81E
:10E290002E0018B10320FFF7BDFA02E00220FFF7BD
:10E2A000B9FA002002490874002630468DE70000C4
:10E2B0004C2A002038B50446002000906846FCF740
:10E2C0002AFA0F480078082812D20D4800782070EA
:10E2D0000B480078401C0A490870207809490968F1
:10E2E000012282401143074A116000BF002500E06F
:10E2F00004259DF80000FCF715FA284638BD0000FB
:10E30000B52300200805014000BF0120034A10602A
:10E3100000BF022002490870704700000000014061
:10E32000B423002010B5002404E0E0B2FFF72CFC79
:10E33000601CC4B2024800788442F6DB10BD0000C5
:10E34000B52300202DE9F04706468A46124800789A
:10E3500018B901201049087004E04FF00809484638
:10E36000BDE8F08730780D49086000BF4FF40041E8
:10E370007068A0FB017001464FF47A7200233846A2
:10E38000FBF74AF8044600BF04480838046000BFA1
:10E390004FF000094846E3E7B42300200C05014094
:10E3A00010B502210148FFF7A9F910BD00E00140B6
:10E3B00010B500210148FFF7A1F910BD00E00140B0
:10E3C00070B504460D4600BF0748FFF79AF90028CC
:10E3D000FAD0256000BF00BF00BFBFF35F8F00BF52
:10E3E00000BF00BF70BD000000E001402DE9F0411A
:10E3F00005460E461746002407E056F8241004226E
:10E4000002FB0450FFF7DCFF641CBC42F5D3BDE8FF
:10E41000F081000010B501210148FFF76FF910BD30
:10E4200000E0014070B500254FF43C3494F82650CC
:10E43000262221460020FEF73DF8A84202D04FF0E8
:10E44000FF3070BD0020FCE770B506460C4606B1F3
:10E4500014B94FF0FF3070BD262C02D04FF0FF30C2
:10E46000F9E74FF43C35224629463046FBF714F8CD
:10E470002046F0E710B58AB028216846FBF725F85A
:10E480006C463F20A07115A00068A0611548008867
:10E49000608015480088A08014A00168E16141688F
:10E4A00021620089A084B520E071032060700620FD
:10E4B00020701022104904F10800FAF7EDFF26221F
:10E4C00021460020FDF7F6FF8DF826002721204683
:10E4D00000F014F800200AB010BD000030303031D8
:10E4E0000000000020F7010022F701003230323036
:10E4F0002D30392D3330000024F7010070B505466A
:10E500000C4605B114B94FF0FF3070BD272C02D96D
:10E510004FF0FF30F9E74FF43830FFF7FFFC10B150
:10E520004FF0FF30F1E7224629464FF43830FFF72D
:10E53000B7FC4FF43C30FFF7F1FC10B14FF0FF3067
:10E54000E3E7224629464FF43C30FFF7A9FC4FF49D
:10E550003830FFF7E3FC10B14FF0FF30D5E7002073
:10E56000D3E770B5FFF75EFF28B300254FF43834CA
:10E5700094F82650262221460020FDF79BFFA84252
:10E5800002D0FFF777FF15E04FF43C30FFF7C6FCF1
:10E5900010B14FF0FF3070BD272221464FF43C30C0
:10E5A000FFF77EFC4FF43830FFF7B8FC10B14FF0A6
:10E5B000FF30F0E700BF0020EDE710B1032801D1E4
:10E5C00001E000E000BF00BF7047000010B5044646
:10E5D000FEF70AFC014A03C210BD0000E823002038
:10E5E00010B504460548006830B10448006800F0E2
:10E5F00023FE00200149086010BD0000D823002040
:10E6000070B50546AE883046FEF73AFC044674B154
:10E610004FF6FF7340F2F31205F1080104F10A000E
:10E62000FEF744FC607221463046FDF719FF70BDCD
:10E630002DE9F0410546EF7BAE88012F01D0BDE802
:10E64000F0814FF6FF70FEF71BFC04461CB9042056
:10E6500000F0F0FBF3E700BF2680002020720E4898
:10E660000168C4F80A104068C4F80E0000BF4FF6F5
:10E67000FF7340F2F31205F1100104F10A00FEF7F6
:10E6800015FC60720548C08918B921463046FDF76F
:10E69000E7FE00BFD3E7000022230020342900203A
:10E6A000CA7B012A02D18A88A0F8E82070472DE9A8
:10E6B000F04106460F46B7F8048008EB4801B01D4C
:10E6C00000EB4104F87B012802D13088208000E073
:10E6D00000BF00BF2088618888420BDD218840464A
:10E6E000A5DF054615B90120607103E0112D01D1A8
:10E6F00001202071BDE8F0812DE9F0410646B78880
:10E700003846FEF7BDFB05466DB16868FBF7F9FFBB
:10E71000044614B1204600F08DFB00BF4FF6FF7099
:10E72000288000BF00BFBDE8F08170B504460E46EA
:10E73000002084F8F200B088B4F8E81088420CD1C8
:10E74000207950B901212046FCF736FA054625B15B
:10E75000A06B10B12846A16B884770BD70B5044608
:10E760000D46A98801EB4102A11D01EB4200FEF715
:10E7700017FC70BD2DE9FC4705460E46B788B6F874
:10E78000069007EB4701A81D00EB4104B9F1170FF4
:10E7900001DA172000E0484681462088484501DD1F
:10E7A000484600E02088608000202071218838469B
:10E7B000B5DF8046607908B1BDE8FC87E86868B1DC
:10E7C000074903C9CDE90001ADF802706088ADF8D2
:10E7D000040069462846EA68904700BF00BFEBE79F
:10E7E00070F701002DE9FC4105460E46B788B6F8E2
:10E7F0000A8007EB4701A81D00EB41042088404533
:10E8000001DD404600E0208860806088172801DA3A
:10E81000172000E060886080E86878B1607968B1AE
:10E82000094903C9CDE90001ADF802706088ADF86F
:10E83000040069462846EA68904700BF00206071DE
:10E840002071BDE8FC81000068F701000548D0E9AF
:10E8500000304FF080729A1840F100000149C1E980
:10E8600000207047E02300202DE9FF4106460D46B9
:10E8700028887188884201D0BDE8FF81AC1C2078CF
:10E88000022800D0F8E7207A042806D0207A06284B
:10E8900003D0207A052800D0EEE7002000900190F8
:10E8A0000290039002208DF800004FF4C070ADF884
:10E8B0000400207A052802D10020ADF80400288841
:10E8C0006946B0DF074617B138467168884700BF10
:10E8D000D2E72DE9F04104460D462888262801D0CC
:10E8E000BDE8F081287A012802D0287A02280ED1CA
:10E8F000A078FBF7D9FC074639462046FCF75CF9BF
:10E90000064626B1A06B10B13046A16B884700BF08
:10E91000E6E7704770B504460D462879012808D10E
:10E9200028886188884204D101202072204600F0A6
:10E9300077FD70BD2DE9F0410446A51D28881249D8
:10E94000C98988421DD1688902281AD1B4F8048087
:10E950004046FEF795FA064696B105F10C00FCF725
:10E96000A3FF20B131464046FDF77AFD08E070680C
:10E97000FBF7C7FE074617B1384600F05BFA00BF49
:10E9800000BFBDE8F08100003429002078B50346BF
:10E9900003F003044FF0FF300090002004E00D5C12
:10E9A0000DF80450641C401C9042F8D3009878BDC8
:10E9B00001460868012802D00868022801D1012018
:10E9C00070470020FCE7000010B5044602492046CD
:10E9D000FEF7C3FC10BD0000442A00200146054894
:10E9E0004056012202EBE07008B101207047002080
:10E9F000FCE70000202A0020014604484056082871
:10EA000001DB012070470020FCE70000202A0020E5
:10EA1000014606484056002805DB044840560828B1
:10EA200001DA012070470020FCE70000202A0020C6
:10EA3000FF2201490A547047202A002070B5FEF7D2
:10EA400067FE044600BF254625B100BF2846FBF7F8
:10EA5000BBFD00BF00BF70BD10B50446142C01DB28
:10EA6000002010BD21460548FEF747FC214603481B
:10EA7000001FFEF742FC0120F3E7000058290020A8
:10EA800070B50546002406E0044901EB84002946E0
:10EA9000FEF715FC641C1E2CF6D370BD5429002013
:10EAA00010B598B00F488068C04317900D48416872
:10EAB00017A8FEF731FC179901A8FDF752FC2C228C
:10EAC00001A90CA8FAF7E8FC002405E00DA931F82B
:10EAD0001400FFF7D5FF641C0C98A042F6D818B0BC
